:10000000801800205D1B000063480000BD1B00003D
:10001000BD1B0000BD1B0000BD1B0000BD1B000080
:100020000000000000000000000000004519000072
:10003000BD1B000000000000ED180000E1470000BB
:100040001D1B00001D1B00001D1B00001D1B0000D0
:100050001D1B00001D1B00001D1B00001D1B0000C0
:100060001D1B00001D1B00001D1B00001D1B0000B0
:100070001D1B00001D1B00001D1B00001D1B0000A0
:100080001D1B00001D1B00001D1B00001D1B000090
:100090001D1B00001D1B00001D1B00001D1B000080
:1000A0001D1B00001D1B00001D1B00001D1B000070
:1000B0001D1B00001D1B00001D1B00001D1B000060
:1000C0001D1B00001D1B00001D1B00001D1B000050
:1000D0001D1B00001D1B00001D1B00001D1B000040
:1000E0001D1B00001D1B00001D1B00001D1B000030
:1000F0001D1B00001D1B00001D1B00001D1B000020
:100100001D1B00001D1B00001D1B00001D1B00000F
:100110001D1B00001D1B00001D1B00001D1B0000FF
:100120001D1B00001D1B00001D1B00001D1B0000EF
:100130001D1B00001D1B00001D1B00001D1B0000DF
:100140001D1B000000000000000000000000000077
:10015000000000000000000000000000000000009F
:10016000000000000000000000000000000000008F
:10017000000000000000000000000000000000007F
:10018000000000000000000000000000000000006F
:10019000000000000000000000000000000000005F
:1001A000000000000000000000000000000000004F
:1001B000000000000000000000000000000000003F
:1001C000000000000000000000000000000000002F
:1001D000000000000000000000000000000000001F
:1001E000000000000000000000000000000000000F
:1001F00000000000000000000000000000000000FF
:10020000DEE61E284CBBCE8F025B00003C000000E7
:10021000F45D00000100000000000000000000008C
:10022000FFFF02910000000000000000000000003D
:0C023000000000000000000000000000C2
:10023C0053B94AB9002908BF00281CBF4FF0FF3141
:10024C004FF0FF3000F06EB9ADF1080C6DE904CE43
:10025C0000F006F8DDF804E0DDE9022304B0704795
:10026C002DE9F04F099D0F4604468946002B7CD1A1
:10027C008A42164640D9B2FA82F24AB1C2F1200142
:10028C0007FA02F39640944020FA01F141EA03097F
:10029C004FEA164E270C1FFA86F8B9FBFEFC0EFB34
:1002AC001C930CFB08F147EA0343994206D9F31857
:1002BC0002D2994200F223810CF1FF3C591AA3B2ED
:1002CC00B1FBFEF00EFB101100FB08F843EA0144F1
:1002DC00A04505D9341902D2A04500F20D81013890
:1002EC00A4EB080440EA0C4000211DB1D4400023CB
:1002FC00C5E90043BDE8F08F02B9FFDEB2FA82F225
:10030C00002A4DD18F1B4FEA164E1FFA86F8012199
:10031C00230CB7FBFEFC0EFB1C7708FB0CF043EA2E
:10032C00074398420AD9F3182CBF0127002798429B
:10033C0002D9002F00F0D9800CF1FF3C1F1AA3B298
:10034C00B7FBFEF00EFB107708FB00F843EA0744FE
:10035C00A04505D9341902D2A04500F2CA80013853
:10036C00A4EB080440EA0C40BFE78B4208D9002DEF
:10037C0000F0B2800021C5E900070846BDE8F08F07
:10038C00B3FA83F1002949D1BB42C0F0A880824264
:10039C0040F2A5800846002DACD0C5E90049A9E77C
:1003AC00C2F120009640914027FA00F34FEA164E16
:1003BC0024FA00F71FFA86F894400F43B3FBFEF0C3
:1003CC004FEA174C0EFB103300FB08F14CEA0343C9
:1003DC0099420CD9F3182CBF4FF0010C4FF0000CC4
:1003EC00994203D9BCF1000F00F0928001385B1ADE
:1003FC00BFB2B3FBFEF10EFB113301FB08FC47EA65
:10040C000347BC4505D9F71902D2BC4500F28780D9
:10041C000139A7EB0C0741EA004179E7C1F120064D
:10042C0003FA01F402FA01FC07FA01F8F24027FA88
:10043C0006F320FA06F700FA01FE224347EA080405
:10044C004FEA1248200C1FFA82F9B3FBF8FA08FBAA
:10045C001A370AFB09FB40EA0747BB4509D9D719EC
:10046C002CBF01230023BB4501D9002B53D00AF12B
:10047C00FF3AA7EB0B07A4B2B7FBF8F008FB107719
:10048C0000FB09F944EA0747B94504D9D71901D249
:10049C00B9453AD8013840EA0A40A7EB0907A0FB56
:1004AC000C894F45C3464C4602D307D1C64505D2ED
:1004BC00B8EB0C0B69EB0202013814461DB3BEEB12
:1004CC000B0367EB040707FA06F6CB40CF4000217D
:1004DC001E43C5E900670DE7294628460AE7841A3A
:1004EC0067EB03030120994655E7ACF1020C33444A
:1004FC0024E70238344433E702383444F0E6ACF1F4
:10050C00020C3344DAE62946F4E602381744C2E713
:10051C00023833446BE7AAF1020A1744A9E70239FF
:10052C00374476E7704700BF2DE9E04F2746A046D9
:10053C00A146A246A346A446A2B02DEC000A84F321
:10054C00008825462646A4473DEC000A22B0BDE8AB
:10055C00E08F00000B6801330B60014B1B681847E0
:10056C0000000020014B1860704700BF0000002005
:10057C0007B50B46002102460191034801A900F082
:10058C00EBF803B05DF804FB610500002DE9F84FB2
:10059C00B0F81890044619F0080893460DD00129BC
:1005AC000CBF49F0100949F02009A0F818908BF302
:1005BC001188BFF36F8FBDE8F88F09F00709022986
:1005CC0007D1204603F07EFE0028F0D00128238BB3
:1005DC0050D16769218B002F15DA256821F00701AE
:1005EC00C4E9008841F0010121830026218B01F030
:1005FC00070ACA4502D0A368002B5CD10DB9002EA6
:10060C0074D0002358E001F007035A1F012A20D8A8
:10061C0021F00701062B256889B2C4E900880CD1AA
:10062C00002D2B4638BF00232BB1628B1B68013287
:10063C006283002BF8D141F002012046218303F0A4
:10064C0041FE06460028D1D0238B43F020032383A0
:10065C00CBE7042B0CD121F0070189B22046218372
:10066C0003F030FE05460028BFD041F02001218365
:10067C000025BAE7032809D1226923F0070316687D
:10068C0043F00603002523832F46AFE7042806D149
:10069C00226923F00703566843F00403F2E70528A8
:1006AC0006D1226923F00703966843F00503E9E7B6
:1006BC0000252E46E8E7012341F0080121838BF346
:1006CC001188BFF36F8F03BB002D33D116B12046B9
:1006DC002049B0474FF02003EFF3118B83F31188BF
:1006EC00BFF36F8F238B23F008032383238BDA064E
:1006FC0028D5012123F010032383B4F8189009F0B6
:10070C00070900297FF45BAF51E7A1680029DBD012
:10071C000B68002B38BF0023994652463B462046B7
:10072C00D1F804B0D847B9F1000FCDD04946D9F86B
:10073C000030EEE729463B46524620462D6803F032
:10074C00DDFDC1E713F020011EBF23F020030221C1
:10075C002383D2E7354300002DE9F04F8B469246B8
:10076C001C46002591B002909AF8000008B9284662
:10077C005EE325280AF1010707D05946029B9847EA
:10078C000028C0F25583013510E2182200210AA876
:10079C0004F0C8F89AF80130252B78D00022944642
:1007AC00164696461046394617F8013B2B2B00F09F
:1007BC009D8000F29480202B00F09B80232B00F076
:1007CC009A8028B19DF8300040F004008DF830007C
:1007DC00BEF1000F05D09DF8300040F008008DF8F8
:1007EC0030002EB19DF8300040F010008DF8300034
:1007FC00BCF1000F05D09DF8300040F020008DF8C2
:10080C0030002AB19DF8302042F040028DF83020A3
:10081C009DF8302002F04400442803D16FF3861277
:10082C008DF830209DF830202A2B42F080028DF874
:10083C0030207BD19DF831204B1C42F001028DF809
:10084C0031201A782E2A0CBF012100219DF831206D
:10085C0061F341028DF8312074D15A782A2A6AD07A
:10086C0000210A260133184610F8012BA2F130079B
:10087C00092F40F28E809DF830200E91C2F340007B
:10088C0040EAD17161F341028DF830205AE00AF14F
:10089C0002078DF833309DF83130D90740F149818A
:1008AC0054F8049BB9F1000F07DA9DF83020C9F118
:1008BC00000942F004028DF830205A0740F14281C1
:1008CC0054F8048BB8F1000F80F241819DF831305F
:1008DC006FF341038DF831304FF0FF3837E12D2B9A
:1008EC000CD0302B7FF46DAF01225CE74FF0010E82
:1008FC0059E7012657E74FF0010C54E7012052E766
:10090C0033460CFB0202303A1E4616F8010BA0F1DE
:10091C003007092FF4D9994293D09DF830100D92DD
:10092C00D20F62F341018DF830108AE70B4600229A
:10093C004FF00A0CE8E79DF83120023342F0040234
:10094C008DF831201F4617F8012B6C2A41D025D881
:10095C00682A2BD06A2A46D04C2A4CD01F4617F84E
:10096C00012B9DF83130782A8DF8332000F2D98094
:10097C00572A4DD8412A03D0453A022A00F2D18099
:10098C0004229DF8323062F302038DF832300123D9
:10099C009EE006FB01210346303964E7742A26D019
:1009AC007A2ADBD106229DF831300DE05A78682A7C
:1009BC009DF8312006D1012161F3C6028DF831205A
:1009CC009F1CCCE71346022262F3C6038DF831302C
:1009DC00C5E75A786C2A9DF8312001D10421EBE748
:1009EC0013460322F0E705229DF83130ECE707228D
:1009FC009DF83130E8E7BDF8303023F4F04323F0B4
:100A0C00020343F4804343F00203ADF83030A6E711
:100A1C00A2F15801202900F2848001A050F821F0A5
:100A2C00F10A00002F0B00002F0B00002F0B000011
:100A3C002F0B00002F0B00002F0B00002F0B0000C2
:100A4C002F0B00008D0900002F0B0000F10A000095
:100A5C00B10A00008D0900008D0900008D0900000D
:100A6C002F0B0000B10A00002F0B00002F0B000011
:100A7C002F0B00002F0B0000F90A0000F10A0000F8
:100A8C00150B00002F0B00002F0B0000150B0000A6
:100A9C002F0B0000F10A00002F0B00002F0B0000A1
:100AAC00F10A000001209DF8321003F0780360F386
:100ABC000201402B8DF8321002BF9DF8301041F02E
:100ACC0001018DF83010632A31D1003B18BF01238E
:100ADC009DF83020C2F340010B4363F341028DF8C3
:100AEC003020D8E602209DF83210DEE703219DF875
:100AFC00322003F07803A3F1400061F30202434279
:100B0C008DF832204341E3E703219DF8322013F0A6
:100B1C00780F61F3020214BF012300238DF83220F9
:100B2C00D6E79DF8303043F001038DF830300023C8
:100B3C00CEE79DF93020002AACBF4FF0FF39DDF82D
:100B4C003490BAE69B077FF5C7AEDDF838800023FA
:100B5C00CDE90D339DF832309DF8312003F00703B9
:100B6C00012BC2F3C30236D1D31E042B20D8DFE8ED
:100B7C0003F00307071F1F0054F8040BC11704E010
:100B8C00073424F00704F4E80201CDE90A019DF8CA
:100B9C00303013F0030654D03B4652465946029867
:100BAC0003F06CFD0028C0F243810544BA46DBE536
:100BBC0054F8040B012A4FEAE071CDE90A0105D182
:100BCC009DF828300A9300230B93E0E7022ADED12C
:100BDC00BDF92800D2E7022B23D1D31E042B13D846
:100BEC00DFE803F0030A0A12120000212068231D1B
:100BFC000A900B911C46CAE7073424F00703F3E86C
:100C0C000201CDE90A01F5E754F8043B012A0A93E5
:100C1C004FF000030B93D3D0022AB8D1BDF8283083
:100C2C00D0E7042B07D1073424F00704F4E80201C1
:100C3C00CDE90A01ABE7032B04BF54F8043B0A933C
:100C4C00A5E79DF833007828B0D8622822D825284B
:100C5C003FF493AD5828A9D1DDE90A010DF1260323
:100C6C0000930CAA04AB03F0BEFC8246B8F1000F53
:100C7C000DF126000CDB9DF83020A0EB0A036FF37E
:100C8C00861298458DF8302002D9A8EB03030D93FA
:100C9C0080463DE06338152888D801A151F820F032
:100CAC002D0D0000910D0000B90B0000B90B0000D8
:100CBC00B90B0000B90B0000910D0000B90B00003E
:100CCC00B90B0000B90B0000B90B0000EF0D0000D0
:100CDC00BD0D0000C10D0000B90B0000B90B0000E8
:100CEC00050D0000B90B0000BD0D0000B90B000094
:100CFC00B90B0000BD0D0000B8F1000FDDF828A005
:100D0C000ADB4146504603F0BDFD00260AEB000805
:100D1C00BAF1000F0CD149E7504603F0ACFDF4E7F3
:100D2C0000260A9B0DF111088DF810300DF1100AF8
:100D3C00A8EB0A0306B101339DF83220D0066BD51F
:100D4C00023352060D9948BF0E9A0B4448BF9B18AC
:100D5C00B9F1000F79DD9DF83020A9EB0309C2F33E
:100D6C0080030393530770D4500664D546B159469B
:100D7C003046029B984700285ADB039B01351E46E0
:100D8C00302359E01E0711D413F0100618BF20268B
:100D9C00DDE90A23002A73F10001BFF65DAF524270
:100DAC0063EB43032D26CDE90A2355E72B26EFE70A
:100DBC00002651E70A9848B30DF126030093002151
:100DCC0004AB0CAA03F00FFCBDF83230824603F0E2
:100DDC00EF0343F4F04343F010030026ADF8323038
:100DEC0044E70A9B072A3FF6E1AEDFE802F00D0468
:100DFC00060D08080D0D1D70D8E61D80D6E6284698
:100E0C00E917C3E90001D1E61D60CFE6DFF8C48025
:100E1C000646A8F1050A8BE7110748BF013390E796
:100E2C00184603935946029B98470028039B04DA03
:100E3C0011B0BDE8F08F20234D444A46002AA5EBA3
:100E4C00090109F1FF39EBDC0D4636B15946304644
:100E5C00029B98470028EBDB01359DF83230D90610
:100E6C0001D41A0706D559463020029B9847002812
:100E7C00DEDB01359DF83230DB0607D559469DF88F
:100E8C003300029B98470028D2DB01350D9E2E447F
:100E9C00731B002B16DC434652465946029803F04E
:100EAC00EDFB0028C4DB0544A944A9EB0503002B8A
:100EBC007FF77CAE59462020029B98470028B7DB71
:100ECC000135F2E759463020029B98470028AFDBEA
:100EDC000135DDE7CD5100004FF02002EFF3118317
:100EEC0082F31188BFF36F8F0121044AC2F84015B9
:100EFC0083F31188BFF36F8F00207047009003506D
:100F0C0020B1034B800143F001031847704700BF29
:100F1C00804F0000044608B54FF02002EFF3118318
:100F2C0082F31188BFF36F8F03F056FC204601F05B
:100F3C0093F8034803F0B9F900F07EFDFCE700BF1D
:100F4C00D851000010B5074801F020FF064C074BA4
:100F5C001860204601F014FB2046FFF703FB00202D
:100F6C0010BD00BF015200007D0F00006802002080
:100F7C000A2838B50446074D04D1286883680D212A
:100F8C005B68984728688368E1B25B68984720469D
:100F9C0038BD00BF6802002070B504460C250D4812
:100FAC000E46231A9A100C4B40215343DBB25D437F
:100FBC0005F14003184403F083FB011E04DB074BCF
:100FCC002B445B689847002120463346BDE87040AF
:100FDC00184700BF7C020020B76DDBB69C4F0000A9
:100FEC002DE9F0410F4C104D031B9B105D43EBB2F0
:100FFC000C255D43074605F140000E462044402178
:10100C0003F077FB011E08DB084B2C44C4E90E36B9
:10101C00074B5B59BDE8F041184738463346BDE8ED
:10102C00F04118477C020020B76DDBB66147000029
:10103C009C4F000070B5002201210446052000F0F1
:10104C00A9FC052000F088FC0F4801F08BFD0F4B2C
:10105C00984215D103F0E9FCE6680D49304603F0DF
:10106C0080F900280BDB01253564E468084904F19C
:10107C001C0003F076F9002801DB0020E56470BD4C
:10108C006FF00400FBE700BFD51000000000AD0BB3
:10109C00B44F000001460C2300224B43084870B5A6
:1010AC00C4184033D4E90E561844A26303F03FFB36
:1010BC002DB132462B46BDE870400248184770BD32
:1010CC007C020020BC00002010B1012804D0704725
:1010DC00034B1B6C5B0701D1FFF7DCBF704700BFF4
:1010EC007C02002008B54FF02003EFF3118183F34D
:1010FC001188BFF36F8F124A136843F0020013F08C
:10110C00010310600CD04FF05022D2F80C34D2F8FE
:10111C000C2413F0010303D00A4803F008FB01234D
:10112C0081F31188BFF36F8F23B1BDE80840002015
:10113C00FFF7B0BF0120BDE8084001F023BD00BFA0
:10114C00CC020020BC020020074BD3E8EF2F22F08A
:10115C000201C3E8E01F0028F7D1D30702D4012015
:10116C0001F042BD704700BFCC0200201FB5002229
:10117C000123CDE902236B46084ACDF800D0CDF807
:10118C0004D003F00DFB002805DB4FF48042002354
:10119C00684602F045FC05B05DF804FB7F47000093
:1011AC002DE9F843012206463949D1E8EF3FC1E861
:1011BC00E02F0028F9D133B9364937484B60CB6062
:1011CC008A6003F0E1F8731E012B32D8012E07D18F
:1011DC004FF05023D3F81C3403F00303022B28D018
:1011EC0003F0FEFC044618B92C4B1B78002B47D19E
:1011FC004FF02003EFF3118583F31188BFF36F8F4A
:10120C000124274FDFF89C80DFF89C904FF0502290
:10121C00D2F81834D2F81824D2030CD503F00303F7
:10122C00022B01D0012E06D124B385F31188BFF314
:10123C006F8FBDE8F883C4B1284600F00BFC4FF06B
:10124C005022D2F81835DBB2012BDFD139680029D6
:10125C00DCD00021396039680221C2F8181520222F
:10126C00C8F88021C9F80030D0E70021212002F015
:10127C008FFBE4E74FF050230222C3F80423D8E796
:10128C004FF0502302220546C3F80823B9E700BFEC
:10129C00D00200206C020020980200207D08002063
:1012AC000451005000E100E008500050044A13685B
:1012BC00C81A20F07F400344136002F081BD00BFC8
:1012CC00E00200202DE9F0474FF480374FF0000981
:1012DC00860000F1500406F15026A40006F5803675
:1012EC00A4B204F15024D6F84035DFF86C8021F01C
:1012FC007F4504F580348740D8F804A5A3EB0A0396
:10130C0023F07F432AF07F42012BC6F8402502D1FF
:10131C00132003F06BFC0AF10202AB1A23F07F439B
:10132C00B3F5000F88BF1546C4F80090236825F06C
:10133C007F43C8F84473C6F84035D8F804359A454D
:10134C0006D0EB1A023B23F07F43B3F5000F01D814
:10135C00BDE8F0872B46CFE700500150F8B50024CC
:10136C0027460F4E0F4B104A18461D6804B1F8BDA6
:10137C00D2F80413C903FAD531680029F7D03460C8
:10138C0031684FF48031C2F848130124D2F840156B
:10139C0025B100205A681F60A847E3E70560E6E71F
:1013AC0040510150D40200200050015038B50024A7
:1013BC004FF480334FF400120D4D0121C5F8084550
:1013CC00C5F804330B4B1520C3F88021224600F0DE
:1013DC00E1FA152000F0C0FA0123074A022013603D
:1013EC00064A2B601360FFF7DBFE204638BD00BFBA
:1013FC000050015000E100E008500150DC020020D8
:10140C00134BB0F1FF3F08BF1846013800281CDD14
:10141C009842A8BF18460F4BD3F804250E4B1968F9
:10142C00521A12F4000F18BF002022F07F43013330
:10143C000A4A03440A48106000205060044A934250
:10144C0094BFC9188918FFF73DBF0020E3E700BF20
:10145C00FFFF7F0000500150E0020020D40200206A
:10146C00B91200004FF02002EFF3118382F31188C0
:10147C00BFF36F8F064AD2F80405064A1268801A29
:10148C0020F07F4083F31188BFF36F8F704700BF4C
:10149C0000500150E0020020F7B500281C4614BF94
:1014AC004FF400534FF400438A42154640D90A4684
:1014BC00204F002839D002F5E07647F82640561C1C
:1014CC00B54230D15D431C484B43009502F0EDFE14
:1014DC001A4B14F0100F1A491A4808BF194602F09B
:1014EC00E4FE14F0040F14BF72212D21164802F0F3
:1014FC00DCFE14F0020F14BF77212D21124802F0EC
:10150C00D4FE14F0010F0CBF2D2178210E4802F0EF
:10151C00CCFE6C210C4802F0C8FE0C4803B0BDE8B0
:10152C00F04002F0C2BE3246C3E702F5C076C4E713
:10153C0003B0F0BD003000504152000035520000A5
:10154C002C5200004A5300005B520000E75B000085
:10155C0008B543B2002B0CDB012200F01F018A40BE
:10156C005B091049203341F82320BFF34F8FBFF3A1
:10157C006F8F830003F1A04303F540533128D3F858
:10158C00002806D0002A07DA02F00302023A012AE8
:10159C0002D8054AC3F80028012103F025F90020E0
:1015AC0008BD00BF00E100E00001008030B54FF441
:1015BC00A02485B01E4D4FF4A0211E4802F075FEEC
:1015CC0021681D4802F071FE29681C4802F06DFE6E
:1015DC0010220021684603F0A5F9236868460093A1
:1015EC00029400F057FF012000F084FF002000F06F
:1015FC006DFF002000F092FF0121002000F0ACFFF5
:10160C0000F0A0FF2C680E4802F04FFE0820FFF7F8
:10161C009FFF24F00104BFF34F8FBFF36F8F64085B
:10162C0064002046214622462346FEF77DFF00BF7C
:10163C00040005005E520000755200008A52000042
:10164C00A85200002DE9F8432B4802F02EFE002191
:10165C000024084640F217130A22FFF71DFF40F240
:10166C00071320220A210020FFF716FF234802F05F
:10167C001CFE234802F019FE40F217130822002129
:10168C000120FFF709FF1F4D40F20713202208210C
:10169C000120FFF701FF194802F007FEC5F880444E
:1016AC00194802F002FE194FC5F8C044DFF87080EB
:1016BC00174DDFF870906E792146002E14BF3B4613
:1016CC00434648462A6802F0F0FD66B911480134D9
:1016DC0002F0EBFD1A2C05F10805ECD10748BDE82A
:1016EC00F84302F0E2BD2879FFF732FF08B10A484F
:1016FC00EDE70A48EBE700BFDE520000E75B0000B5
:10170C00025300000030005024530000D35200005C
:10171C00C04F00004D530000545300005C530000B8
:10172C003952000040530000014802F029BC00BFB0
:10173C009050000008B5B0B14368042B0DD10022C5
:10174C000368D3E8EF1F012903D1C3E8E02F002879
:10175C00F7D1074808BF104608BD3BB1006801F03F
:10176C005BFD0020F8E76FF4E040F5E70148F3E794
:10177C00E98FFFFFEA8FFFFF10B5044618B90D4B38
:10178C000D485B689847616808290DD031F0040357
:10179C000AD011F0020108D02146084801F09AFC49
:1017AC00002323600023636010BD1422206803F023
:1017BC00B9F8F7E75C0000205D540000E40200205B
:1017CC0010B5044618B9164B16485B689847636801
:1017DC00042B23D0082B21D0CBB92368BBB94FF0F5
:1017EC00FF324FF0FF3321460F4801F041FC08B99E
:1017FC0023681BB90A4B0D485B68984714220021DB
:10180C00206803F08FF8636843F00203636020687C
:10181C0003F033F9636843F00103636010BD00BF4C
:10182C005C0000205D540000E402002083540000A2
:10183C0008B5E8B14368042B0CD101220368D3E846
:10184C00EF1F002903D1C3E8E02F0028F7D10BD1FB
:10185C00002008BD53B100684FF0FF324FF0FF334A
:10186C0001F062FC0028F3D00348F2E70348F0E7EC
:10187C006FF4E040EDE700BFE98FFFFFEA8FFFFF59
:10188C0008B5064940231422054803F0DBF8BDE8EF
:10189C0008400449044802F0C5BB00BF0003002007
:1018AC00E4020020A850000098500000094A0A49A0
:1018BC00936809689867D96708494B6843F0805367
:1018CC004B60002383F31188BFF36F8F9368D86F3D
:1018DC00704700BF200800202851000000ED00E0F8
:1018EC0013498A684FF038001044EFF3098C80E8F4
:1018FC00F01F202080F31188BFF36F8F0D4F4FF036
:10190C0000668A6A8A603E60906F0023936780F35A
:10191C00118802F1380090E8F01F8CF3098802F16D
:10192C00000004B502F08FFFBDE8044070470000D2
:10193C002008002004ED00E01EF0040F0CBFEFF3B4
:10194C000880EFF30980816911F8021C0229FFD08D
:10195C0001B502F07CFF01BD43B2002B08DB012274
:10196C0000F01F0002FA00F0024A5B0942F8230063
:10197C00704700BF00E100E0054B420953F82220FC
:10198C00012300F01F0003FA00F01040704700BF65
:10199C0000E100E043B2002B01F10101ACBF03F107
:1019AC006043064B4FEA4111C9B2ABBF03F561432B
:1019BC0000F00F0083F800131954704714ED00E089
:1019CC0042F8203C009B0B4942F81C3C019B21F047
:1019DC00010142F8183C029B42F8081C42F8143CE6
:1019EC004FF0807342F8043C0023203A82658367F1
:1019FC00704700BF27440000044608B50E46154644
:101A0C0000F0A0FB084B9C60A36E83F30B88284668
:101A1C0086F30988002163B681F31188BFF36F8FB9
:101A2C000022002302F0F9FC2008002001491022BA
:101A3C000A60704710ED00E072B6404080F31188E8
:101A4C00BFF36F8FBFF34F8F30BF62B6BFF36F8F93
:101A5C00704700BF72B6494081F3118820BF80F3F4
:101A6C00118862B6704700BF37B505460C46C9B140
:101A7C008B6810480093D1E90023452102F015FC36
:101A8C00636945210093D4E903230B4802F00DFC54
:101A9C004521E269094802F008FC4521A269084881
:101AAC0002F003FC2146284603B0BDE8304001F0AB
:101ABC0095B900BFB0540000E45400001855000064
:101ACC002C55000030BFFFF7FDBF00BF0E4A08B514
:101ADC000E4B22F07F029A60BFF34F8FBFF36F8FD4
:101AEC00D3F8882022F47002C3F88820EFF3148313
:101AFC0023F0040383F3148801F0EEF902F068F884
:101B0C0000F0F2FA01F00CFA0000000000ED00E029
:101B1C0001B572B60B4A506A00281EBF00215162F3
:101B2C0002F08EFF62B6EFF30580A0F110004FEAD1
:101B3C00C0000549014409C99847BDE80140034963
:101B4C000847000020080020004D0000492000003C
:101B5C00002080F31488BFF36F8F002080F30A8875
:101B6C0080F30B8802F0A1FD00200E490860BFF342
:101B7C004F8F0D4880F3088800F090FA202080F3F6
:101B8C0011880A484FF40061401880F30988EFF37C
:101B9C0014800221084380F31488BFF36F8FFFF782
:101BAC0095FF000094ED00E080180020C019002083
:101BBC00EFF30880EFF3098101B5724600F05AF992
:101BCC0001BD00BF70B5224C06460D46214845218B
:101BDC0002F06BFBA26AD00603D545211E4802F029
:101BEC0064FBA36A190703D545211C4802F05DFB71
:101BFC00174CA36A9A0710D54521194802F055FBDA
:101C0C00626BA36A1B0608D54521164802F04DFBF2
:101C1C001EB1A36A23F08003A3620D4CA26AD00705
:101C2C0003D54521104802F040FBA36A990603D561
:101C3C0045210E4802F039FB0020054B9A6AD2066A
:101C4C0058BF9A6A9A6A42F0FF029A62287070BD75
:101C5C0000ED00E05F5500007A550000B255000021
:101C6C00CA550000E7550000025600002656000039
:101C7C0070B5234C06460D462248452102F015FB53
:101C8C00A26AD10403D545211F4802F00EFBA36ABA
:101C9C001A0503D545211D4802F007FB184CA36A11
:101CAC009B0510D51A48452102F0FFFAA26BA36AD6
:101CBC00180408D54521174802F0F7FA1EB1A36A9B
:101CCC0023F40043A3620E4CA36A590503D54521A6
:101CDC00114802F0EAFAA36ADA050BD545210F4840
:101CEC0002F0E3FA0020064A936A43F47F439362BE
:101CFC00287070BDA36A9B04F4D545210848EFE712
:101D0C0000ED00E05A56000075560000B255000078
:101D1C008B560000A9560000C3560000E356000085
:101D2C002656000038B5214C4521214802F0BDFA59
:101D3C00A26A950103D545211E4802F0B6FAA36AA2
:101D4C00DC0103D545211C4802F0AFFA174DAC6AF3
:101D5C0014F4801404D04521184802F0A6FA022489
:101D6C00AB6A180303D54521154802F09EFA0F4DB6
:101D7C00AA6A510303D54521124802F096FAAB6AC0
:101D8C009A0303D54521104802F08FFA074DAB6A30
:101D9C00DB0303D545210D4802F087FAAB6A2046D8
:101DAC006FEA03436FEA1343AB6238BD00ED00E00A
:101DBC00005700001D570000355700005457000015
:101DCC0083570000A6570000D0570000EF570000C3
:101DDC0010B51E4C1E48452102F067FAA2696369D2
:101DEC00580603D545211B4802F05FFA6369D907F1
:101DFC0008D54521184802F058FA636943F0FF03EF
:101E0C00636110BD63699A0702D545211348F2E757
:101E1C0063695B0702D545211148ECE76369180734
:101E2C0002D545210F48E6E76369D90602D545215D
:101E3C000D48E0E763699A0602D545210B48DAE7BD
:101E4C0063691B06D9D545210948D4E7D0ED00E0DC
:101E5C001F5800003D580000525800006D580000FB
:101E6C0090580000B0580000D2580000EC58000008
:101E7C000B5900002DE9F0415C4B0D465C680026C7
:101E8C008AB0C4F3080786F31188BFF36F8F02F092
:101E9C007F43B3F17F4F30D112F001032CD012F0FD
:101EAC00400302F0080840F09A80520754BF0546E0
:101EBC001E462A684E4B58BF01261344012B98BF6F
:101ECC002A6C45214B4802F0F0F9B8F1000F10D004
:101EDC00EFF389850023FA1E98468DF807301346D8
:101EEC00092B6AD8DFE803F00B5A5E39626969691D
:101EFC006966EFF38885EDE71E463546EAE745212E
:101F0C003D4802F0D2F9394B8DF80780DC6A14F0A9
:101F1C00020404D04521394802F0C7F948E0DB6AD5
:101F2C005B0022D54521364802F0BFF9354B1B78B2
:101F3C0033B101200DF10701FFF744FE044614E014
:101F4C00314B1B782BB101200DF10701FFF790FEEF
:101F5C00F4E72E4B1B889BB213B1FFF7E3FEEDE7C2
:101F6C002B4B5B690BB1FFF733FF9DF8073093B92F
:101F7C002022294602A802F0AAFC099B56B3C3F3FF
:101F8C00080222B96FEA53236FEA432309932046D0
:101F9C0002A9FFF769FD0AB0BDE8F08100200DF140
:101FAC000701C9E700200DF10701CFE7FFF710FF8C
:101FBC000024DAE745211748AEE7174914F4F87FF7
:101FCC00164A174808BF0A46A7F11003452102F02C
:101FDC006CF9EDE723F4FF7323F00103D6E7B8F1B6
:101FEC00000F7FF477AF0546012673E700ED00E0A4
:101FFC00A6ED0501515900007559000091590000DA
:10200C00B759000028ED00E029ED00E02AED00E0D2
:10201C00D0ED00E0DB5900002359000038590000D6
:10202C00165A0000044B5A6942F010025A615A6960
:10203C0042F480625A61704700ED00E0044B9968ED
:10204C00986A884203D003494FF080520A60704767
:10205C002008002004ED00E0BFF34F8F0549064B2C
:10206C00CA6802F4E0621343CB60BFF34F8F00BF2A
:10207C00FDE700BF00ED00E00400FA050023184660
:10208C00054A1168C1F307218B4200D17047936058
:10209C0010610133F8E700BF90ED00E010B572B6A7
:1020AC00002484F31388FFF7E9FF0E4A23461146F8
:1020BC004FF0FF3403F120000133102B42F8204085
:1020CC00F8D100234FF0FF3003F160020133102BE5
:1020DC0041F82200F8D162B6BFF34F8FBFF36F8F78
:1020EC0010BD00BF00E100E0002320210348C2180E
:1020FC000133412B82F80013F9D1704700E100E065
:10210C0008B50E4B9B68834207D1EFF3058393B15F
:10211C000B4A536843F08053536001F08BFA4FF035
:10212C002003EFF3118083F31188BFF36F8FBDE8A9
:10213C00084002F0A9BC01F02BFD00BF20080020D4
:10214C0000ED00E01FB5094C094A2346012109485E
:10215C0000F040F900230393074B0121E41A01A876
:10216C000193029400F040F904B010BD000001206E
:10217C0000000020BC5000006001002010B50B686E
:10218C000C7A23F01F0204F01F031A43CB68640976
:10219C0023F01F03044943EA440343F0010388601E
:1021AC00CA600B6110BD00BF90ED00E030B54B680C
:1021BC000C6885B00A898D7A0094013B24F01F04C9
:1021CC00234402F01F0242EA451223F01F030F289A
:1021DC0004468DF80820039309D902464521064888
:1021EC0002F063F86FF01504204605B030BD694667
:1021FC00FFF7C4FFF8E700BF325A00002DE9F04F9B
:10220C008946144606464FF00008524D85B0C84525
:10221C0023DA7768002F42D01F2F17D9FB0615D170
:10222C00D6F800A01AF01F0F10D1504602F01AFB7E
:10223C00834607EB0A00013802F014FB834510D0EB
:10224C006FF0150B5A464521434802E042464521A2
:10225C00424802F02AF86FF01504204605B0BDE89C
:10226C00F08F1BF1160FEDD0631E5B45EADBC5F852
:10227C0008B0E968C5F808B02F6921F01F01D6E94C
:10228C0000321A44994247F01F0702F1FF3A1CD161
:10229C00574508D131465FFA8BF0FFF787FF08F1FD
:1022AC0001080C36B3E73146C5F808B0EB6822F0EC
:1022BC001F0203F01F031A43EA60E0B2FFF776FF38
:1022CC0010F1160FC7D0441CE9E7013B5745E0B2AB
:1022DC0023F01F03C5F808B006D12A69314602F075
:1022EC001F0213432B61E9E7296901F01F010B431E
:1022FC002B613146FFF75AFF10F1160FABD0C5F822
:10230C0008B0EA689DF80830013F62F304038DF8C9
:10231C0008302B699DF808205B0863F347128DF891
:10232C000820D6E900321344009323F01F033B44EA
:10233C00441CA3EB0A0AE0B22AF01F030F280393F4
:10234C0003D902464521064883E76946FFF716FF85
:10235C00B9E700BF90ED00E0855A00005D5A00001F
:10236C00325A00000522034B5A60BFF34F8FBFF364
:10237C006F8F704790ED00E0BFF35F8F0022014B31
:10238C005A60704790ED00E038B50E4C2568102D62
:10239C0014D8FFF7F1FF00200B4B0C4A1A6385424F
:1023AC0005D10B4B1D70FFF7DDFF002038BD6168B8
:1023BC0001EB0011FFF7E2FE0130F0E74FF0FF30C8
:1023CC00F4E700BFC850000090ED00E0AAFF440005
:1023DC007C08002010B5034C2278FFF70FFF20700B
:1023EC0010BD00BF7C0800202DE9F74F264D8A4612
:1023FC0006464FF00008AB46244FD0451BDAD6F802
:10240C000490B9F1000F39D031680846019102F0FF
:10241C0029FA0199044609EB0100013802F022FA6D
:10242C0084424FF014021A4B08D06FF0150302FBD4
:10243C0008F84BF8083003B0BDE8F08F14F1160F14
:10244C002C60F8D01978A142F5DD02FB08B0BC6015
:10245C00BC60FC6800F10801007B64F304000871A7
:10246C0038690C79400860F347140C71F96821F055
:10247C001F016960396921F01F01296108F1010808
:10248C0014350C36B9E700BF0008002090ED00E0D1
:10249C007C08002082680C4B9A60036883F3888860
:1024AC00436883F38988027B02F00101EFF3948384
:1024BC0023F00303920748BF43F0020309B143F032
:1024CC00010383F39488704700ED02E0084AD36857
:1024DC0048B123F400531B041B0C43F0BF6343F4BB
:1024EC000033D36070479BB243F40053F5E700BF51
:1024FC0000ED00E0084AD36840B19BB243F480433E
:10250C0043F0BF6343F40033D360704723F480433C
:10251C001B041B0CF4E700BF00ED00E0084AD36875
:10252C0040B19BB243F0080343F0BF6343F4003364
:10253C00D360704723F008031B041B0CF4E700BFA7
:10254C0000ED00E0034AD2F88C3043F44063C2F84B
:10255C008C30704700ED00E0084B1A6818B142F05F
:10256C0001021A60704722F001021A601A6811B158
:10257C0042F00202F5E722F00202F2E7D0ED00E0B1
:10258C00014B1860704700BF24000020F0B54B7958
:10259C00012B29D0032B24D110268B79032B20D18E
:1025AC00CC7924B1012C1CD143681B79CBB10A79AD
:1025BC0012B1022A15D10E220B684568B3F5164FDD
:1025CC002D6865D02DD8B3F5165F64D016D8B3F549
:1025DC00966F62D00AD8B3F5967F61D0B3F5167FAB
:1025EC0061D06FF0220052E00026D6E7B3F5166FEB
:1025FC005CD0B3F5965FF4D1374B3CE0B3F5E14FCB
:10260C0057D007D8B3F5615F55D0B3F5964FE8D1E5
:10261C00324B30E047F61227BB42E2D14FF40003B5
:10262C0029E0B3F5613F48D013D8B3F5963F47D0B6
:10263C0009D84DF6C027BB4244D0B3F5614FD0D179
:10264C004FF46B0317E0B3F5E13FCAD14FF0EB73D6
:10265C0011E0B3F5612F38D008D8214FBB4237D0E9
:10266C00B3F5E12FBDD14FF0E86304E01D4FBB4241
:10267C00B7D14FF08053C5F82435C3683443224397
:10268C00043303C9C5F86C2583E803000020F0BDB2
:10269C004FF41D03EFE7144BEDE74FF49E23EAE7ED
:1026AC004FF4A033E7E74FF41C33E4E74FF41D235A
:1026BC00E1E70E4BDFE70E4BDDE74FF06C73DAE72B
:1026CC000C4BD8E74FF46503D5E74FF07063D2E7B6
:1026DC004FF08063CFE700BF00B0130000A04E00A6
:1026EC0090D0030040420F000050270000C075003E
:1026FC0000F03A0000903A012DE9F0410646884678
:10270C00C76802F06DFAB8B9284B1B7883F0010347
:10271C007268156893B14FF02003EFF3118483F3C3
:10272C001188BFF36F8F304602F051F938BB84F338
:10273C001188BFF36F8FEEE70123E9E7642430467D
:10274C0002F045F970B9012002F06DF9013CF6D1A7
:10275C000021212001F01CF9F0E784F31188BFF36C
:10276C006F8FF5E74FF02003EFF3118483F311889B
:10277C00BFF36F8F304602F02AF90028EDD0012309
:10278C00002207F8108FC5F84475C5F84835C5F810
:10279C002021D5F82011C5F85821D5F85821AB6067
:1027AC0084F31188BFF36F8FBDE8F0817D080020A2
:1027BC004FF0000C43682DE9F041C6681C680F46C9
:1027CC00C4F800C505463060086801213E4B00F096
:1027DC001F02914099600321803243F822107A68DD
:1027EC00511C1EBF02F01F01803143F821C0B96893
:1027FC00C4F80C05481C18BF0020C4F814251EBFD3
:10280C0001F01F02803243F82200F868421C0CD001
:10281C004FF0010C00F01F020CFA02FCC3F808C0C8
:10282C004FF0030C803243F822C0C4F80805C4F8FA
:10283C001015E96828460431FFF7A8FE804678B9E0
:10284C006B689B79E3B106F1120000F043FA1F4B61
:10285C00984208D045211E4801F027FD6FF004086E
:10286C004046BDE8F081B37C43F00043C4F8A0318E
:10287C00C4F88C300123B27C9340164AC2F804355C
:10288C000823C4F800357B6801330CD00023C4F84E
:10289C001031D4F8103106F11103C4F8343501238A
:1028AC00C4F8383523606B689B791BB94FF480737F
:1028BC00C4F8043300231036C4F84465C4F8483512
:1028CC000123A360E360CBE7002584500000AD0B2F
:1028DC00BC5A00000070015030B585B06C460546FE
:1028EC00084B0FCB84E80F00002201210820FFF7D2
:1028FC0051F80820FFF730F821462846FFF758FF1B
:10290C0005B030BD404F000030B585B06C46054673
:10291C00084B0FCB84E80F00002201210920FFF7A0
:10292C0039F80920FFF718F821462846FFF740FF31
:10293C0005B030BD504F00000348452108B501F0EB
:10294C00B4FC0020FFF788FBF75A00002DE9F04398
:10295C000025214C214E54F8048CDFF8889085B06A
:10296C00A84503D8002005B0BDE8F083636A96E85B
:10297C0007001F6801AB83E807000C221946384694
:10298C0001F095FF90B98FB1636A21691B681A69D0
:10299C0091420BD19A69A169914207D8E1699142A0
:1029AC0004D962695B6932EA03030AD0276A67B10A
:1029BC000B4801F07AFC404080F311884FF0040082
:1029CC0002DFE36801351C44CAE7484601F06DFCA0
:1029DC00636A1F60F5E700BF3C020000604F000017
:1029EC00195B0000425B0000054B1868043B1B6838
:1029FC00092B03D1431E58425841704700207047A1
:102A0C003401FF004A4A08B5136843F0020313600F
:102A1C00484B1B68092B01BF4FF050230022C3F811
:102A2C001421C3F81821FFF7DFFF30B10123424A0C
:102A3C001360A2F63822C2F878353E4B1B68092B7E
:102A4C0007D13E4B1B68012B1EBF01223C4BC3F828
:102A5C007825FFF7C9FF10B10E223A4B1A60354B9F
:102A6C001B68092B04D10022374B1A6001225A60D3
:102A7C000022D30003F57F03D3F80013013108D0F3
:102A8C00D3F800130132D3F80433B2F5807F0B6016
:102A9C00EFD12E4BDA69D1073BD52D4B1946D3F824
:102AAC000024012AFBD1C3F80425D1F80034012BF2
:102ABC00FBD1264BDA69D20708D5DA69244922F012
:102ACC000102DA61D1F80024012AFBD11A6A013221
:102ADC000AD11A6A22F0FF0242F020021A621C4A42
:102AEC00D2F80034012BFBD10022194BC3F804257A
:102AFC00D3F80024012AFBD1BFF34F8F1549164B95
:102B0C00CA6802F4E0621343CB60BFF34F8F00BF7F
:102B1C00FDE71B6A0133C0D00E4AD2F88C3043F467
:102B2C004063C2F88C300D4B0D4A1A6008BD00BFD3
:102B3C00D0ED00E03001FF00384A00503401FF00B6
:102B4C0000400050E4AE03500C4700500080FF00E2
:102B5C000090035000ED00E00400FA055000002046
:102B6C000090D003044B1A7922B9012218601A7113
:102B7C000248704702487047140800200000AD0B53
:102B8C000C00AD0B10B1012820D070474FF0502233
:102B9C00D2F81834D2F81814C90311D503F0030372
:102BAC00022B0DD1C2F8183500220D4B1A601B6890
:102BBC0002224FF05023C3F8042301229A6070477D
:102BCC004FF050230122C3F81825EDE70022054BE6
:102BDC001A601B684FF05023C3F804031860704749
:102BEC00045100500051005038B510B1012818D0D4
:102BFC0038BD4FF050230222012142F210751C46C1
:102C0C00C3F80823154A10601268154A1160D4F8ED
:102C1C001834DB03ECD5012001F005FF013DF6D1A2
:102C2C00E6E74FF05024002242F210750D4BC4F829
:102C3C0008031A601B680C4B1860D4F80C34D4F8D9
:102C4C000C2403F00103D203D2D5002BD0D00120E9
:102C5C0001F0E9FE013DF0D1CAE700BF045100507C
:102C6C000C5000500051005004500050164B10B541
:102C7C001A6852B1002018601B6801224FF05023D3
:102C8C00C3F80823114B1B689847114B1A688AB17B
:102C9C0000221A601B684FF05023D3F81824D3F885
:102CAC00181402F00302012A4FF0020103D1C3F8F9
:102CBC0018159A6010BDC3F80813044B0120BDE829
:102CCC0010401B68184700BF00510050140800202A
:102CDC00045100500B4A70B51668F14389B271B1BA
:102CEC000025ECB221FA04F3DB0705F10105F8D558
:102CFC000123A340334304700348136070BD0348A1
:102D0C00FCE700BF1C0800200000AD0B0200AD0B5F
:102D1C00F8B5104B104F53F82050013053F8206089
:102D2C00AE4200D8F8BDD5E900342046984770B1C2
:102D3C006CB10123E41B094A2411610952F82100EA
:102D4C0004F01F0403FA04F4044342F8214008354C
:102D5C00E6E700BF14510000BC0000200C0100206D
:102D6C00084BC01A0011084B420953F822200123CA
:102D7C0000F01F0003FA00F010420CBF18460020B0
:102D8C00704700BFBC0000200C010020114970B539
:102D9C0005460E46104C8C4204D10F4CB4420AD15D
:102DAC00002414E02046FFF7DBFF10B12368AB4290
:102DBC000DD01034EFE72046FFF7D2FF08B91034DE
:102DCC00ECE72846216801F066FD0028F7D1204683
:102DDC0070BD00BF0C010020BC000020F7B50546FB
:102DEC000E464FF02003EFF3118783F31188BFF3E6
:102DFC006F8F00F0EFFD0022042D98BF184B044696
:102E0C0094BF53F82530174B009245212A4616489B
:102E1C0001F04BFA3EB1F369C3F308031BB1452132
:102E2C00124801F042FA34B1204601F0E3FE0346A9
:102E3C0008B1027802B90E4B224645210D4801F02B
:102E4C0034FA31462846FFF777FD87F31188BFF334
:102E5C006F8F204603B0BDE8F040FFF751B900BFBB
:102E6C002C510000805B0000965B0000C35B0000EF
:102E7C008E5B0000E95B0000F8B505460027154E97
:102E8C004FF02002EFF3118382F31188BFF36F8FA1
:102E9C00286988B12F6183F31188BFF36F8F00F01D
:102EAC00C9FB4FF02003EFF3118083F31188BFF3BC
:102EBC006F8F01F0E9FDE3E701F0B4FE0121044658
:102ECC000228D8BF084601F0BDFE7462FEF7B4FDBF
:102EDC00D6E700BF200800200248034A0021121A3E
:102EEC0001F020BD6001002080080020012208B5FF
:102EFC00094B02201A70FFF70BFF00F05DFE032058
:102F0C00FFF706FF00F0E6FD01F0A8F9034A137B7A
:102F1C0023F00103137308BD7D080020E00100209D
:102F2C002DE98048374BA7B003F5006989F3088871
:102F3C0083F30A880024E023334D4FF0010B85F80E
:102F4C002230EC772C766C76AC76EC766B6A2F4E66
:102F5C0043F4E0236B626B6ADFF8CCA043F40023EC
:102F6C006B62AC63FFF75EF8FEF760FD4FF0FF336A
:102F7C00AB62EB6240F20113254DADF8243006AB89
:102F8C00AB602046CDE92044FFF7C2FE0120FFF7DD
:102F9C00BFFE00F0A3FC1F4BAE624FF480521E49E3
:102FAC00059330465346CDE9034BCDE901440094DB
:102FBC0000F060FD737B804623F00403304673738E
:102FCC0001F08EFD0F23154F4FF4A072CDE9024393
:102FDC001349144B3846CDE904B4CDE9005400F044
:102FEC0049FD7B7B524623F004037B7305F11C03E4
:102FFC0041463046C5E90733EF602C76C5F804909E
:10300C00FEF7FAFCC019002000ED00E0E001002002
:10301C0020080020505C0000800800206001002087
:10302C0080180020852E0000F92E000070B50E4B84
:10303C000E4CA34201D3002070BDD3E9030141EA39
:10304C00000212F003020BD19D685A61AA4201D111
:10305C001C33EEE75E6901320E6059610144F5E7FD
:10306C006FF01500E8E700BF1001002010010020F0
:10307C00D3B50C4616461F464FF02003EFF31181D3
:10308C0083F31188BFF36F8F43695BB123601B68B7
:10309C004361836901338361002081F31188BFF39D
:1030AC006F8F11E056EA070203D16FF00B0023601B
:1030BC00F3E70246CDE90067044800F07DFB18B940
:1030CC00034B9B685B69236002B0D0BD7E08002077
:1030DC0020080020F8B504460D464FF02003EFF30E
:1030EC00118683F31188BFF36F8F47696FB901F0B5
:1030FC0052FD50B12A68C767426101F0F1FC3146BC
:10310C00BDE8F840074800F00FB92B6862691A60F7
:10311C002B686361A369013BA36186F31188BFF33C
:10312C006F8FF8BD7E0800202DE9F341044616464A
:10313C001F464FF02003EFF3118883F31188BFF380
:10314C006F8FC368324A6BB180689168884219D01E
:10315C0056EA070318D188F31188BFF36F8F6FF00D
:10316C000F000CE0916891F90E100133E360936845
:10317C002161A36088F31188BFF36F8F002002B028
:10318C00BDE8F0812169F0E790F90E3091F90E104D
:10319C009942A8BF194621EAE1718B422CDD00F05F
:1031AC0059FB054622464146CDE90067194800F017
:1031BC0003FB0028E3D04FF02003EFF3118683F3D9
:1031CC001188BFF36F8F23682169A34207D033B1F5
:1031DC0093F90E309942A8BF194621EAE171A06813
:1031EC0090F90E30994209D16DB13146094800F081
:1031FC009BF86FF00A00C2E70025D3E700F02AFB2A
:10320C000028F2D1F0E786F31188BFF36F8FF0E757
:10321C00200800207E08002038B583680446002B67
:10322C0036D01E4A9268934235D1DA7B013ADA7372
:10323C00C368012B05D0013BC36000F0D9F8002016
:10324C0038BD4FF02003EFF3118583F31188BFF3E2
:10325C006F8F0169806890F90E30994201D000F0AF
:10326C00F9FA204601F097FCA06058B190F90E20B5
:10327C0022610022C26701F033FC2946084800F0A5
:10328C0053F8DAE7E06085F31188BFF36F8FD4E76A
:10329C006FF01500D4E74FF0FF30D1E72008002085
:1032AC007E08002010B5084C23685BB1FEF7DAF8F5
:1032BC0003462068054A03440021BDE810405361D1
:1032CC0001F0C0BC10BD00BF5C080020200800202D
:1032DC00F8B505460C464FF02003EFF3118683F347
:1032EC001188BFF36F8F00224FF4004740F2E73094
:1032FC0000210A4BE7FB05015A614FF47A72002357
:10330C00FCF796FF064B1860064B1C60FFF7CAFFD4
:10331C0086F31188BFF36F8FF8BD00BF2008002023
:10332C005C0800205808002049B9EFF3058030B93B
:10333C00054B9A6A9B689A4201D0FEF7B7BA81F3A3
:10334C001188BFF36F8F7047200800204FF02003C7
:10335C00EFF3118183F31188BFF36F8F044B9A68DD
:10336C00D37B013BD37381F31188BFF36F8F70470D
:10337C0020080020094B03F12C02824205D19B68E6
:10338C008B4202D14B7BDB0606D1D1E900321360B4
:10339C005A600023C1E90033704700BF20080020A9
:1033AC0038B5124C01462369A2680BB1E5680CE0F4
:1033BC0004F12C0001F08AFB0546537B980644BFB0
:1033CC0043F008035373002DF0D049B9537BDB064F
:1033DC0006D1AB6923B9D3897F2B01D9A26238BD41
:1033EC00954201D0FFF75EFFA562F8E720080020A8
:1033FC0010B54FF02003EFF3118483F31188BFF362
:10340C006F8F084B00209A68D37B0133D373FFF77F
:10341C00C7FF84F31188BFF36F8FBDE8104001F034
:10342C003FBB00BF2008002070B490F90D20437BF7
:10343C00002A2CDBDB062AD1836943BB154A1146D3
:10344C0051F82C4F8C4218BF2346002B38BF002359
:10345C00146BB3B190F90E6093F90E50AE4203DBCE
:10346C00A3420ED01B68F4E75A68C0E90032106022
:10347C005860437B63F07F03437370BC0020FFF7FD
:10348C008FBFC0E90014136B18601063F1E770BCB8
:10349C00704700BF2008002010B54FF02002EFF35A
:1034AC00118482F31188BFF36F8F427B510704D4D0
:1034BC0084F31188BFF36F8F10BD22F004024273A6
:1034CC00FFF7B2FF2146BDE810400148FFF72CBFC3
:1034DC007E08002070B590F90D300146002B02DA01
:1034EC001748FFF747FF174A104650F82C3F146B4C
:1034FC00834208BF0023002B38BF0023D3B191F9BE
:10350C000E6093F90E50AE4203DBA34212D01B683F
:10351C00F4E75868C1E90030016059604B7B906852
:10352C0063F07F034B73431A58425841BDE8704017
:10353C00FFF736BFC1E90004136B19601163EDE7A7
:10354C004C08002020080020014670B54FF02003E5
:10355C00EFF3118483F31188BFF36F8F164B174A67
:10356C0098681568A8421D4606D1FFF79BFE84F3A8
:10357C001188BFF36F8F70BD00261660104A126859
:10358C00BAB1C2897F2A14D8427BD20611D10D4A16
:10359C0090F90E60126896420BDB0B4A904208D0F1
:1035AC005A698A4202DCFFF795FFDEE7521A5A612C
:1035BC00DDE700236B61DAE72008002054080020C7
:1035CC005C080020580800206001002070B50446FB
:1035DC00183001F011FB4FF02003EFF3118683F349
:1035EC001188BFF36F8F94F90D30002B07DA214649
:1035FC000E48FFF7BFFE637B03F07F0363730C4D34
:10360C00637BA86843F010036373031B5842584153
:10361C00FFF7C6FE86F31188BFF36F8FAB68A3422A
:10362C0003D1BDE8704001F03BBA70BD4C080020DE
:10363C00200800202DE9F04104464FF02003EFF361
:10364C00118283F31188BFF36F8F437B13F0280F24
:10365C0005D082F31188BFF36F8FBDE8F08143F082
:10366C002003437382F31188BFF36F8F183001F07E
:10367C00C3FA4FF02003EFF3118683F31188BFF3E5
:10368C006F8F637BD80616D1A269A2B9190607D52C
:10369C0021462648FFF76EFE637B03F07F036373BE
:1036AC00234B9868021B50425041FFF779FE0027CC
:1036BC0004F130081DE09B07F9D52146A068FFF7FF
:1036CC0059FE637B23F0020363730023A360EEE7D0
:1036DC0005F1180001F090FAA8682946FFF74AFE98
:1036EC006B7B284623F002036B73AF60EF67FFF729
:1036FC009BFE256B454501D0002DE9D10C4B9A68FA
:10370C000C4B9A4202D10120FFF74AFE637B43F037
:10371C0008036373236E86F31188BFF36F8F002B3E
:10372C009BD02046BDE8F041184700BF4C08002054
:10373C00200800206001002008B590F90D300146EA
:10374C00002B06DA0748FFF715FE4B7B03F07F03CF
:10375C004B73054B9868431A58425841BDE80840D2
:10376C00FFF71EBE4C080020200800202DE9F04178
:10377C00064614461D464FF02003EFF3118783F3E2
:10378C001188BFF36F8F01F0DBF987F31188BFF35A
:10379C006F8F6B1C08BFB4F1FF3F08D022462B463D
:1037AC0006F118000349BDE8F04100F07BBABDE812
:1037BC00F08100BF0D4B000010B50C46064B1146B6
:1037CC009868064B1860DDE90223FFF7CFFF20460F
:1037DC00BDE81040FEF76AB820080020540800200D
:1037EC002DE9F04105460F4601F046FA04464FF02C
:1037FC002003EFF3118883F31188BFF36F8F124E00
:10380C00124BB0682C441860FFF796FFB068104953
:10381C002A463B46183000F045FAB2684046537BC6
:10382C00002543F010035373FEF740F801F024FA1F
:10383C00241A65F10005002C75F10003B8BF0024B3
:10384C002046BDE8F08100BF20080020540800206D
:10385C000D4B00002DE9F04104464FF02003EFF32F
:10386C00118883F31188BFF36F8F437B4EB2DB0655
:10387C002ED1856965BB184F214607F12C00FFF747
:10388C0079FDFB6A3A6B834218BF1D46002D38BF89
:10389C000025A673B5B195F90E10B14203DCAA420E
:1038AC0010D02D68F6E76A68C4E9005214606C60A9
:1038BC000120FFF775FD012088F31188BFF36F8F8E
:1038CC00BDE8F081C4E900023B6B1C603C63EFE790
:1038DC000020A673F0E700BF200800200021044B55
:1038EC00084603F12C02C3E90B22FFF7F1BC00BF21
:1038FC0020080020F8B5244C244BA2689A4230D002
:10390C004FF02003EFF3118583F31188BFF36F8F12
:10391C00A16804F12C00FFF72DFDE36AA268834235
:10392C0008BF0023002B38BF0023216B2BB392F967
:10393C000E7093F90E60B74203DB8B421DD01B68EF
:10394C00F4E75968C2E900310A605A60537B0120E0
:10395C0063F07F035373FFF723FD85F31188BFF3E7
:10396C006F8F4FF02003EFF3118083F31188BFF3B7
:10397C006F8FBDE8F840FDF799BFC2E90001236BDA
:10398C001A602263E2E700BF2008002060010020DB
:10399C00B1F1FF3F08BFB0F1FF3F08B502460B463F
:1039AC0006D10B4B9868FFF711FE4FF0FF3008BDA6
:1039BC0013430AD1FFF79EFF00204FF47A7380FB6C
:1039CC000323D00B40EA4340F1E7FFF709FFF4E78C
:1039DC0020080020014B9868704700BF2008002089
:1039EC0038B504464FF02003EFF3118583F31188AB
:1039FC00BFF36F8F01F0CFF848B10022C26701F01E
:103A0C006FF82946BDE838400448FFF78DBCD4E96F
:103A1C0002329A4218BF0133A360F2E77E080020FD
:103A2C0037B514461D464FF02003EFF3118183F395
:103A3C001188BFF36F8F836843B1013B836081F3BF
:103A4C001188BFF36F8F002003B030BD54EA05031B
:103A5C0006D181F31188BFF36F8F6FF00F00F3E77E
:103A6C000246CDE900450248FFF7A6FEECE700BF91
:103A7C007E0800202DE9FF4100F13005C0E90C550E
:103A8C000E9D04460573042545730D9DD61D857347
:103A9C0000250C9A26F00706C0E90655C0E91A164F
:103AAC00C573056702920B9A01EB060801920A9AFC
:103ABC0000924246FDF784FF054BC4E917559B68FD
:103ACC0003B15B6F4046636704B0BDE8F08100BF93
:103ADC00200800202DE9F0472A4E2B4DB04686B029
:103AEC00B54205F1300410D3FFF730FC4FF4004918
:103AFC0040F2E7360027244CDFF890A0444521D350
:103B0C0006B0BDE8F047FFF773BC54F8043C0593CE
:103B1C0054F8103C049354F8143C039354F8183C98
:103B2C00029354F81C3C019354F8203C009354E944
:103B3C000A2354E90C01FFF79DFF54F8303CDD6576
:103B4C002546CDE7636A5A1C0DD03046394623EA28
:103B5C00E373C9FB0301B94208BFB042256804D125
:103B6C002846FFF799FC3034C8E74FF47A720023EB
:103B7C00FCF75EFB02460B4605F11800514600F0BF
:103B8C0091F8F0E710010020100100200D4B00000F
:103B9C0008B54FF02003EFF3118483F31188BFF3C2
:103BAC006F8F044B98681861FFF710FD2046FDF7E6
:103BBC007DFE00BF20080020024A0349034800F0A4
:103BCC0074BB00BF34520000585C0000675C0000FE
:103BDC0008B50648064A0749121A00F078FEBDE8F7
:103BEC000840054A0549064800F071BE0000002057
:103BFC0060010020945C000000000000945C000058
:103C0C0000000020034B1B680BB9FDF72BBC0020F8
:103C1C00704700BF6008002030B5036868B10A4ADD
:103C2C005268904209D043B1D3E90421D0E904454C
:103C3C00121945EB0101C3E90421426813605A6073
:103C4C000023C0E9003330BD5400002038B5134BBD
:103C5C001C689C4208BF0024FFF7D4FF0546BCB18A
:103C6C00D4E90401401B61EBE571012871F10003FB
:103C7C0011DB6FF000420023824273EB010400DA87
:103C8C001046074B5B6913B19842A8BF184638BD64
:103C9C006FF00040F5E70020F3E700BF5400002070
:103CAC00200800202DE9F74F019119464B1C08BF45
:103CBC00B2F1FF3F824670D06FF001034FF0FF3B33
:103CCC00541C41F10005B3EB04086BEB0509B8F18A
:103CDC00000F79F100030FDBFFF794FF6FF0010386
:103CEC00344AD2E9001C5B1A6BEB0C021E1B62EB14
:103CFC000507341A67EBE075019BCAF808304FF0E2
:103D0C002003EFF3118683F31188BFF36F8FFFF756
:103D1C0079FF012C75F10003BCBF01240025264B53
:103D2C0024181A6845EBE0759A42CAE9044501D09B
:103D3C005F6852B95A68CAF80030CAF804205A6849
:103D4C00C2F800A0C3F804A014E0D2E90489DAE9AF
:103D5C000445444575EB090122DAB8EB040069EB24
:103D6C000501C2E904015168CAE90021C1F800A0AB
:103D7C00C2F804A01A689A420BD0924509D1FFF7F9
:103D8C0065FF18B10D4B5B69834202D00021FDF732
:103D9C0037FB86F31188BFF36F8F03B0BDE8F08F4C
:103DAC00B4EB080065EB0901BA42CAE90401C1D0C1
:103DBC001268BEE76002002054000020200800209A
:103DCC002DE9F74F0646FFF7BFFB4FF02003EFF34B
:103DDC00118483F31188BFF36F8FDFF8B0A02A4DE5
:103DEC005146DFF8ACB02E60D5F800C0DBF800000F
:103DFC006246DAE90089D3175845CDE900230DD086
:103E0C0060B1D0E90467B445BB411DDA009BB6EB49
:103E1C00030C019B67EB0306C0E904C60026009B5C
:103E2C002E6013EB0802019B43EB0903C1E900234D
:103E3C00FFF70CFF3146FDF7E3FA84F31188BFF36B
:103E4C006F8F03B0BDE8F08F0022002318EB06083B
:103E5C0049EBE679C0E90423ACEB0606CAE9008914
:103E6C002E60FFF7D9FE84F31188BFF36F8F836840
:103E7C0098474FF02003EFF3118483F31188BFF3BD
:103E8C006F8F0249B0E700BF60080020600200207D
:103E9C005400002010B54FF02003EFF3118483F38E
:103EAC001188BFF36F8FFDF7DDFA064BD3E90023C2
:103EBC00121843F1000384F31188BFF36F8F10467F
:103ECC00194610BD6002002038B5064C064DAC42B8
:103EDC0001D3002038BD2046D4E9011200F0D0FEF9
:103EEC001434F4E7100100201001002010B50A4C26
:103EFC0023681BB101230020236010BD00F0AEF835
:103F0C000028F7D00138062803D8044B53F82000BA
:103F1C0010BD034810BD00BF6408002040510000D4
:103F2C00FE8FFFFFBFF34F8F0549064BCA6802F4A3
:103F3C00E0621343CB60BFF34F8F00BFFDE700BFC0
:103F4C0000ED00E00400FA054FF0FE33002130B420
:103F5C00064A074D074C2B6013602360064A074C3A
:103F6C00EB606368C2F8001530BC18470414845029
:103F7C000014845008148450000084505C0000200D
:103F8C00024BD0E90012C3E9001270475C0000201C
:103F9C0048B143682BB1BFF35F8F00230360184611
:103FAC007047024870476FF4E0407047EA8FFFFF9C
:103FBC0010B5044628B1636813B100232360636015
:103FCC0010BD024B02485B689847F4E75C00002088
:103FDC005C51000010B5044630B1002263682260C9
:103FEC0043F00103636010BD0148FFF7ADFFF4E738
:103FFC008451000080B1436863B10122D0E8EF3FE7
:10400C00C0E8E12F0029F9D1012BF7D0BFF35F8F66
:10401C0000207047024870476FF4E040704700BFC3
:10402C00EA8FFFFF70B40B4B0668C268D0E90154ED
:10403C00C3E90242C3E90065D1E903020E68064BED
:10404C00D1E90154C3E90065C3E902401A6170BCAF
:10405C00704700BF6C0000207C00002010B500F001
:10406C0033F820B1032400F067F8204610BD00F0AF
:10407C0035F890B900F0B0F890B90F4B1B681B0ED7
:10408C00F02B08D10D4A0E4B12689A420AD0072425
:10409C0000F01CF8E7E70624FAE70424204610BDDC
:1040AC000024F5E7012000F097F804460028F7D12A
:1040BC00044B1860D9E700BF28198450241A845087
:1040CC000000E0200C1A845000207047002070473C
:1040DC00014B1860704700BF041A845010B511488A
:1040EC0000F048F800B110BD0F4800F043F800286C
:1040FC00F9D10E4C204600F03DF80028F3D10C4BC2
:10410C000C481C6000F036F801460028EBD100F09A
:10411C002DF8044608B1204610BD00F03FF82046AB
:10412C00FAE700BFB4000020A8000020B000002077
:10413C00B8000020AC00002008B5084800F024F8B6
:10414C00074800F021F8074800F01EF8064800F078
:10415C001BF8BDE8084000F00BB800BFB40000200D
:10416C00A8000020B0000020AC0000200020704708
:10417C00704700BF08B5034B02681B68106898476E
:10418C00002008BD6C00002008B5034B02685B687A
:10419C0010689847002008BD6C00002070B5094CD1
:1041AC00094D2069AB68984718B1084B08485B6803
:1041BC0098470021074AEB6811602069BDE8704000
:1041CC00184700BF7C0000206C0000205C00002021
:1041DC00A85100007808002070B51A4D1A4E0446FC
:1041EC00B26828699047F0B95CB1184C2368ABB140
:1041FC00012B1AD0013B23602869F36898470020F3
:10420C0070BD124C216839B90120114B114AC3F809
:10421C0000051368002BFCD101312160F36828697B
:10422C009847002070BD0C4870BD0A4A1368002BDB
:10423C00FCD1074A6FF07E40C2F80035FFF748FF0B
:10424C002368D7E77C0000206C0000207808002051
:10425C000000845010198450E98FFFFF08B5FDF75A
:10426C00F1F9BDE80840FDF7A1B9034658B1426821
:10427C0002F00302012A03D0032A04D1026812B10E
:10428C000020986070476FF0150070474268034635
:10429C0002F00302032A4FF00002816014BF1046A3
:1042AC0000685A607047002070470FB407B504A926
:1042BC0051F8040B0191FCF75BF903B05DF804EBCA
:1042CC0004B07047038B13F0070305D10368002B70
:1042DC000CBF002003207047022B05D1438B002B11
:1042EC0014BF002004207047012B05D10368002B5C
:1042FC000CBF002005207047002070472DE9F041CD
:10430C000D4607461946281D90461E46FFF7BEFF70
:10431C00044638B13346424629463846A446BDE8E1
:10432C00F0416047BDE8F08110B44FF02004EFF38A
:10433C00118284F31188BFF36F8F416110BC01218E
:10434C00FCF724B910B50C4640B139B1081DFFF784
:10435C008CFF28B9A36833F0030301D06FF015006C
:10436C0010BD38B50C46054658B151B10B6843B178
:10437C004B6833B11C22002100F0D4FA00202C61D0
:10438C0038BD6FF01500FBE770B504460E46FFF71D
:10439C00D9FF051E31DB4FF02003EFF3118183F3BE
:1043AC001188BFF36F8F4FF6FF75638B208BAB4279
:1043BC0000F007022ED0022A0ED10133638315467A
:1043CC00012381F31188BFF36F8FB3B10023314602
:1043DC002046FFF793FF10E0830701D0062A0ED189
:1043EC0000233360636893B9C4E90066154662B96B
:1043FC000A4620460221FCF7C9F8284670BD052A5A
:10440C000CBF6FF022056FF004050023D9E71E6086
:10441C006660EBE76FF00A05F7E7044608B5084657
:10442C0011461A46A047FFF7D5FAFDF769FE8368D7
:10443C0000EBC101B3F5004F2CBF51F8220031F84D
:10444C001200704700EBC1018068B0F5004F2CBF23
:10445C0041F8223021F812307047012208B5FFF7DD
:10446C00E6FF400808BD836800EBC101B3F5004FBF
:10447C0008D34B681AB143F001034B60704723F02B
:10448C000103FAE74B881AB143F001034B807047E4
:10449C0023F00103FAE753000122FFF7D3BF806832
:1044AC000131B0F5004F2CBF02200120081AB0FAE0
:1044BC0080F0C0F11F0070472DE9F04104460D4615
:1044CC00FFF7CBFFA3680146B3F5004F01D30128DA
:1044DC0035D02046FFF7E3FF04EB800216699EB946
:1044EC00012303FA00F0E36829460343E360204606
:1044FC0015612B460222FFF7A5FF03222946204611
:10450C00BDE8F041FFF79EBF022231462046FFF77F
:10451C008EFF07460346022229462046FFF792FFEC
:10452C003346032229462046FFF78CFF03223946E7
:10453C002B462046FFF786FF02223146DFE7BDE817
:10454C00F081B2F5802FF8B52CBF08250425002387
:10455C00551B0022CC1D24F007040460C4E9002381
:10456C0000230D4425F007052D1BED082946204698
:10457C00A560E360FFF793FF8600411C18461B36CD
:10458C00F60804F110028B4229DB3246204600214A
:10459C00FFF781FFAF1B204601220021FFF763FFCD
:1045AC003A463146FFF777FF334631462046002224
:1045BC00FFF748FF294620460022FFF76CFF3B46D9
:1045CC00294620460022FFF73DFF294620460122BE
:1045DC00FFF749FF3146BDE8F840FFF76DBF42F8E1
:1045EC00040B0133CFE72DE9F74F9946D3781446E6
:1045FC006F2BA3F1410206460F4601922DD028D80D
:10460C00582B14BF0A251025AA464FF0000BDDF8D5
:10461C00308052465B4630463946FBF709FE092A84
:10462C00D3B21FD830335F45DBB208BF564508F80C
:10463C00013D01D3C84512D823789B0605D5082D1A
:10464C0016D1A37843F00803A370404603B0BDE82D
:10465C00F08F03F0F703702BD3E70825D4E7064659
:10466C000F46D6E7019A192A94BF37335733DAE746
:10467C00102DEAD1A37843F01003E5E72DE9F041C2
:10468C000746884615461E461446B442A4EB050060
:10469C0002D33EB923782BB1414614F8010BB8472D
:1046AC000028F2DABDE8F0817047FEF7ABB9CBB267
:1046BC000C21C26803FB0121086C00F00700704755
:1046CC004FF02003EFF3118283F31188BFF36F8F48
:1046DC00036813F0C00301D08B4207D101230360A0
:1046EC00002082F31188BFF36F8F70474FF0FF30BB
:1046FC00F7E710B54FF02003EFF3118283F3118825
:10470C00BFF36F8F036803F00704012C06D101601F
:10471C00002082F31188BFF36F8F10BD03F0C0032C
:10472C008B4214BF4FF0FF306FF04400F1E74FF0B5
:10473C002003EFF3118283F31188BFF36F8F0368AB
:10474C0003F0C00343F00203036082F31188BFF34C
:10475C006F8F704710B41C24C068CBB203FB0400ED
:10476C00002110BC10470020FEF70CBA0020FEF709
:10477C003BBA1046FFF734B938B50C24C9B24C43D8
:10478C000546C06804F1400380211844FFF798FFE8
:10479C00002804DB69680C4463689847002038BD26
:1047AC002DE9F0410C24C9B24C43C568064604F10E
:1047BC0040008021284490461F46FFF79AFF0028AE
:1047CC0006DB2544C5E90E8773681B599847002002
:1047DC00BDE8F0817047704770470020FCF79ABB2A
:1047EC0000210120FDF740B9024643B20846C1B989
:1047FC00002B27DB01205B099B0003F1604303F5D1
:10480C006143D3F8801202F01F02904021EA0001AC
:10481C00C3F88012D3F88002D04000F00100C0B27F
:10482C007047002B0DDB01215B099B0003F16043FA
:10483C0003F56143D3F8800202F01F02914001435B
:10484C00E6E700207047836E83F30B8870470146C0
:10485C000068FDF709B908B5FDF734F9BDE8084063
:10486C00FDF7ECBB40E800F313F4803FD8B208BF6F
:10487C006FF015007047034600201A5C02B97047B0
:10488C000130FAE7034600201A5C0AB1884200D1D5
:10489C0070470130F8E7431E013913F8012F11F866
:1048AC00010F824201D1002AF7D1101A704710B5BE
:1048BC005AB10139841810F8012B11F8013FA042AC
:1048CC0001D09A42F7D0D01A10BD1046FCE7F0B5D3
:1048DC0081EA0004A50703460BD0013B0A44914230
:1048EC001BD1F0BD002AFCD011F8014B013A03F8A2
:1048FC00014B9C07F6D122F003041D1F96080F19DB
:10490C00B94205D16FF00305234405FB0622E4E709
:10491C0051F804CB45F804CFF2E711F8014B03F83A
:10492C00014FDCE7034670B5C9B29C0711D141EACF
:10493C00012422F0030644EA04451E449408B342C1
:10494C000DD16FF0030505FB04221A44934209D1E3
:10495C0070BD002AFCD003F8011B013AE5E743F8CF
:10496C00045BECE703F8011BF0E74FF0FF307047F6
:10497C0043681B68D3F80423D20518D5D3F820213B
:10498C00AAB14FF02001EFF3118281F31188BFF32C
:10499C006F8FD3F8201131B10021C3F82011D3F857
:1049AC0020110121D96082F31188BFF36F8F7047FA
:1049BC000B46C268D2E9010183E80300002070476E
:1049CC0043681B68D3F88004C3F8800470474268BE
:1049DC001368D3F8580138B9927932B9D3F8200159
:1049EC00003818BF01207047012070474368C26827
:1049FC001B68D3F8100148B10020527C0A70C3F830
:104A0C001001D3F8102101221A6070474FF0FF30CB
:104A1C00704708B5FCF788FEFCF732FFBDE808408C
:104A2C00FFF764BA004700F0E1B808B50520FCF7C1
:104A3C00A3FF20B9BDE808400520FCF78DBF08BDD9
:104A4C00FFF7C9BE30B50024846141EA020414F0BA
:104A5C000304C0E9023201610CD14461A34203D1C9
:104A6C00C0E90000002030BD456901340D60416192
:104A7C001144F3E76FF01500F5E703460020C3E996
:104A8C000033C3E902007047034620B9EFF30582F7
:104A9C000AB9FCF70BBF83F31188BFF36F8F704714
:104AAC004FF02003EFF3118083F31188BFF36F8F66
:104ABC00FFF7EABF014608B58068FEF75BFC4B7B4D
:104ACC0023F002034B7300238B6008BD0346006880
:104ADC00834203D0002838BF002070470020704765
:104AEC0010B54FF02003EFF3118483F31188BFF35B
:104AFC006F8FFEF799FC84F31188BFF36F8F10BD95
:104B0C0070B504464FF02003EFF3118683F3118840
:104B1C00BFF36F8F50F8103CA0F1180513B1284665
:104B2C00FFF7C8FF14F80B3C284623F0140304F8D5
:104B3C000B3CFEF779FC86F31188BFF36F8F70BDC9
:104B4C0038B504460D46FEF7F7FD637B43F00203D0
:104B5C006373C5B12B68A5609D4208BF0023002B71
:104B6C0038BF002383B194F90E1093F90E209142B3
:104B7C0004DB6A689A4207D01B68F3E75A68C4E9F9
:104B8C00003214605C6038BD6B68256063606B68D4
:104B9C001C606C60F7E738B54FF02003EFF311821F
:104BAC0083F31188BFF36F8FFFF790FF044682F3F6
:104BBC001188BFF36F8F88B14FF02003EFF311858D
:104BCC0083F31188BFF36F8FFFF774FF85F31188A0
:104BDC00BFF36F8F04F1180000F00EF8204638BDBB
:104BEC00EFF30580003818BF0120704708B1FCF7BF
:104BFC0087B970470020704710B54FF02002EFF3D3
:104C0C00118482F31188BFF36F8F03683BB1FFF7F8
:104C1C0003F8002084F31188BFF36F8F10BD6FF081
:104C2C001500F7E710B54FF02003EFF3118483F371
:104C3C001188BFF36F8FFFF709F884F31188BFF366
:104C4C006F8F10BD70B504460D464FF02003EFF387
:104C5C00118683F31188BFF36F8FFEF7F7FF0128DE
:104C6C0005DDA04203DD29462046FCF7C9FB86F38F
:104C7C001188BFF36F8F70BD08B5FFF70BF908BD36
:104C8C0010B400F10C04C0E9034410BCFFF759BC8C
:024C9C0070475F
:024C9E00FFFF16
:084CA000CCB5FF7F010000000C
:104CA800E50E0000000000003930000000000000A0
:104CB800D53E000000000000952300000000000021
:104CC80041100000BC00002015290000CC00002085
:104CD800E5280000DC000020510F00000000000063
:104CE800B9130000EC0000201F4A0000FC0000205F
:084CF800592900000000000032
:104D000000000000ED47000000000000ED4700003B
:104D100000000000ED47000000000000ED4700002B
:104D200000000000ED470000792C0000314A00002F
:104D300000000000ED47000000000000ED4700000B
:104D4000DC0000207D490000CC0000207D490000EF
:104D500000000000ED47000000000000ED470000EB
:104D600000000000ED47000000000000ED470000DB
:104D700000000000ED47000000000000ED470000CB
:104D800000000000ED47000000000000ED470000BB
:104D900000000000ED47000000000000ED470000AB
:104DA00000000000ED470000000000006913000053
:104DB00000000000ED47000000000000ED4700008B
:104DC00000000000ED47000000000000ED4700007B
:104DD00000000000ED47000000000000ED4700006B
:104DE00000000000ED47000000000000ED4700005B
:104DF00000000000ED47000000000000ED4700004B
:104E000000000000ED47000000000000ED4700003A
:104E100000000000ED47000000000000ED4700002A
:104E200000000000ED47000000000000ED4700001A
:104E300000000000ED47000000000000ED4700000A
:104E400000000000ED47000000000000ED470000FA
:104E500000000000ED47000000000000ED470000EA
:104E600000000000ED47000000000000ED470000DA
:104E700000000000ED47000000000000ED470000CA
:104E800000000000ED47000000000000ED470000BA
:104E900000000000ED47000000000000ED470000AA
:104EA00000000000ED47000000000000ED4700009A
:104EB00000000000ED47000000000000ED4700008A
:104EC00000000000ED47000000000000ED4700007A
:104ED00000000000ED47000000000000ED4700006A
:104EE00000000000ED47000000000000ED4700005A
:104EF00000000000ED47000000000000ED4700004A
:084F000000000000ED47000075
:104F080014520000030000000D5B000003000000C5
:104F18002E5A000003000000555C0000030000004A
:104F2800D251000003000000CE5100000300000031
:084F3800E75A0000010000002F
:104F40001D0000001C0000001A0000001B000000F3
:104F500001000000000000000F0000000E00000033
:104F6000DEE61E28EAAC45B8025B0000DEE61E283D
:104F70004CBBCE8F025B0000000000000000000070
:104F80000338FDD870470000791100008547000004
:104F9000AD47000000000000BB460000F11000001B
:104FA00055110000085200007347000079470000C7
:104FB0000E520000ED0F0000A50F000000000000E1
:104FC0006153000042010000685300000501000029
:104FD00072530000140100007B5300001501000013
:104FE00084530000390100008D53000009010000C6
:104FF000985300000A000000A35300000A010000BB
:10500000AD5300000B010000B75300000F0100007A
:10501000C253000010010000CD5300001101000038
:10502000D85300000E010000E253000021010000EF
:10503000EB53000022010000F453000023010000A4
:10504000FD53000024010000065400001801000078
:105050000E5400002A010000165400003A0100001E
:105060001E5400002C010000265400001C0100000A
:105070002F5400001D0100003854000017010000EB
:1050800042540000040100005154000031010000AE
:1050900000000000E7470000CD1700008517000062
:1050A0003D180000411700001C00002004000020F3
:1050B00014000020000000000C0000200000002070
:1050C000000000000600010002000000D0500000B7
:1050D00000000000AD5A000006000000E0FF0F00D5
:1050E00000000020B55A000021000000E0FF002071
:1050F000F949000005270000CD490000992500006E
:10510000BD490000008000500600010000900050E2
:1051100006000100A84C0000E84C0000F04C000024
:10512000004D0000004D0000F5FFFFFF065C000091
:10513000145C0000285C0000375C0000435C000049
:10514000FF8FFFFFFF8FFFFFFE8FFFFFFE8FFFFF31
:10515000FD8FFFFFFC8FFFFFFC8FFFFF6D757465F8
:10516000785F667265652063616C6C656420776941
:105170007468204E554C4C20706172616D65746589
:105180007200000043616E277420696E6974696162
:105190006C697A65206D757465782C207761732051
:1051A0004E554C4C0D0A0000436F756C64206E6FB9
:1051B00074206C6F636B20706F77657220736176FB
:1051C00065206D7574657800286E696C2900736FB1
:1051D0006300706F776572004661696C6564207466
:1051E0006F207265626F6F743A207370696E6E69BA
:1051F0006E6720656E646C6573736C792E2E2E0A53
:1052000000554152545F30006866636C6B006C66F9
:10521000636C6B00636C6F636B5F636F6E74726F54
:105220006C007379735F636C6F636B0053656375B8
:1052300072650909004E6F6E2D53656375726509BD
:1052400000253032752025303275203078253035F4
:1052500078203078253035782009002563005350B8
:105260004D3A204E5320696D61676520617420308E
:105270007825780A0053504D3A204E53204D535014
:1052800020617420307825780A0053504D3A204E22
:105290005320726573657420766563746F72206144
:1052A0007420307825780A0053504D3A207072658A
:1052B0007061726520746F206A756D7020746F2044
:1052C0004E6F6E2D53656375726520696D616765FC
:1052D0002E0A004E6F6E2D53656375726500466C25
:1052E00061736820726567696F6E730909446F6D39
:1052F00061696E09095065726D697373696F6E73C8
:105300000A005352414D20726567696F6E09094466
:105310006F6D61696E09095065726D697373696FAC
:105320006E730A005065726970686572616C090974
:10533000446F6D61696E09095374617475730A0075
:105340002530327520252D32317325730009534BDA
:1053500049500A00094552524F520A00094F4B0A60
:10536000004E52465F5030004E52465F434C4F4312
:105370004B004E52465F52544330004E52465F52ED
:10538000544331004E52465F4E564D43004E5246F6
:105390005F554152544531004E52465F554152547B
:1053A0004532004E52465F5457494D32004E5246E8
:1053B0005F5350494D33004E52465F54494D45525C
:1053C00030004E52465F54494D455231004E5246D0
:1053D0005F54494D455232004E52465F534141445D
:1053E00043004E52465F50574D30004E52465F507C
:1053F000574D31004E52465F50574D32004E524687
:105400005F50574D33004E52465F574454004E5242
:10541000465F495043004E52465F564D43004E5240
:10542000465F465055004E52465F45475531004E47
:1054300052465F45475532004E52465F44505049F0
:1054400043004E52465F524547554C41544F5253CC
:10545000004E52465F4750494F544531006D7574B8
:1054600065785F696E69742063616C6C6564207730
:10547000697468204E554C4C20706172616D657482
:10548000657200436F756C64206E6F7420616C6C84
:105490006F63617465206D75746578206265666FF1
:1054A000726520696E697469616C697A696E6700FA
:1054B00025633A2072302F61313A20203078253030
:1054C0003878202072312F61323A20203078253010
:1054D0003878202072322F61333A202030782530FE
:1054E00038780A0025633A2072332F61343A20203D
:1054F000307825303878207231322F69703A202088
:10550000307825303878207231342F6C723A202070
:105510003078253038780A0025633A202078707377
:10552000723A20203078253038780A0025633A20F6
:105530004661756C74696E6720696E737472756309
:1055400074696F6E206164647265737320287231B0
:10555000352F7063293A203078253038780A0025B5
:10556000633A202A2A2A2A2A204D5055204641559E
:105570004C54202A2A2A2A2A0A0025633A2020206D
:10558000537461636B696E67206572726F72202855
:10559000636F6E746578742061726561206D6967F0
:1055A0006874206265206E6F742076616C6964296E
:1055B0000A0025633A202020556E737461636B697D
:1055C0006E67206572726F720A0025633A20202090
:1055D00044617461204163636573732056696F6C25
:1055E0006174696F6E0A0025633A2020204D4D4694
:1055F000415220416464726573733A203078257893
:105600000A0025633A202020496E73747275637412
:10561000696F6E204163636573732056696F6C61B7
:1056200074696F6E0A0025633A202020466C6F6112
:1056300074696E672D706F696E74206C617A792061
:1056400073746174652070726573657276617469D4
:105650006F6E206572726F720A0025633A202A2AE3
:105660002A2A2A20425553204641554C54202A2AA2
:105670002A2A2A0A0025633A202020537461636B8A
:10568000696E67206572726F720A0025633A202086
:10569000205072656369736520646174612062756E
:1056A00073206572726F720A0025633A20202042CF
:1056B00046415220416464726573733A2030782504
:1056C000780A0025633A202020496D70726563696D
:1056D0007365206461746120627573206572726FF6
:1056E000720A0025633A202020496E737472756334
:1056F00074696F6E20627573206572726F720A0032
:1057000025633A202A2A2A2A2A2055534147452030
:105710004641554C54202A2A2A2A2A0A0025633A4F
:105720002020204469766973696F6E206279207A3F
:1057300065726F0A0025633A202020556E616C69FE
:10574000676E6564206D656D6F7279206163636556
:1057500073730A0025633A202020537461636B2021
:105760006F766572666C6F772028636F6E746578EC
:10577000742061726561206E6F742076616C69645B
:10578000290A0025633A2020204E6F20636F707233
:105790006F636573736F7220696E7374727563746F
:1057A000696F6E730A0025633A202020496C6C658E
:1057B00067616C206C6F6164206F66204558435FA1
:1057C00052455455524E20696E746F2050430A0062
:1057D00025633A202020496C6C6567616C207573E5
:1057E00065206F662074686520455053520A002575
:1057F000633A202020417474656D707420746F20AA
:105800006578656375746520756E646566696E6537
:105810006420696E737472756374696F6E0A002513
:10582000633A202A2A2A2A2A2053454355524520E2
:105830004641554C54202A2A2A2A2A0A0025633A2E
:10584000202020416464726573733A203078257893
:105850000A0025633A202020496E76616C69642035
:10586000656E74727920706F696E740A0025633AF0
:10587000202020496E76616C696420696E746567CA
:1058800072697479207369676E61747572650A0054
:1058900025633A202020496E76616C696420657822
:1058A00063657074696F6E2072657475726E0A003C
:1058B00025633A2020204174747269627574696F9F
:1058C0006E20756E69742076696F6C6174696F6E95
:1058D0000A0025633A202020496E76616C696420B5
:1058E0007472616E736974696F6E0A0025633A2081
:1058F00020204C617A792073746174652070726520
:10590000736572766174696F6E0A0025633A2020B0
:10591000204C617A79207374617465206572726FAE
:10592000720A005265736572766564204578636516
:105930007074696F6E20280053707572696F75738B
:1059400020696E74657272757074202849525120F6
:105950000025633A2020205320696E7374727563AA
:1059600074696F6E20616464726573733A202030CD
:105970007825780A0025633A202A2A2A2A2A2048EC
:10598000415244204641554C54202A2A2A2A2A0AA8
:105990000025633A202020427573206661756C747F
:1059A000206F6E20766563746F72207461626C651F
:1059B00020726561640A0025633A202020466175E3
:1059C0006C7420657363616C6174696F6E202873F9
:1059D00065652062656C6F77290A0025633A202A85
:1059E0002A2A2A2A204465627567206D6F6E6974C1
:1059F0006F7220657863657074696F6E20286E6FB2
:105A00007420696D706C656D656E74656429202AFB
:105A10002A2A2A2A0A0025633A202A2A2A2A2A2000
:105A2000257320256429202A2A2A2A2A0A006D7033
:105A3000750025633A204661696C656420746F20A7
:105A4000616C6C6F63617465206E6577204D505595
:105A500020726567696F6E2025750A0A0025633A12
:105A600020506172746974696F6E2025753A2073D5
:105A7000616E69747920636865636B206661696C27
:105A800065642E0A0025633A20496E76616C69646C
:105A900020756E6465726C79696E672072656769DE
:105AA0006F6E20696E6465782025750A00464C414A
:105AB00053485F30005352414D5F300025633A2018
:105AC0004661696C656420746F20616C6C6F636102
